{
  "contractName": "Vote",
  "abi": [
    {
      "inputs": [],
      "payable": false,
      "stateMutability": "nonpayable",
      "type": "constructor"
    },
    {
      "constant": false,
      "inputs": [
        {
          "internalType": "uint256",
          "name": "x",
          "type": "uint256"
        }
      ],
      "name": "vote",
      "outputs": [
        {
          "internalType": "uint256",
          "name": "",
          "type": "uint256"
        }
      ],
      "payable": false,
      "stateMutability": "nonpayable",
      "type": "function"
    },
    {
      "constant": true,
      "inputs": [
        {
          "internalType": "uint256",
          "name": "x",
          "type": "uint256"
        }
      ],
      "name": "getItem",
      "outputs": [
        {
          "internalType": "uint256",
          "name": "",
          "type": "uint256"
        }
      ],
      "payable": false,
      "stateMutability": "view",
      "type": "function"
    }
  ],
  "bytecode": "0x608060405234801561001057600080fd5b5060008090505b600381101561004057600080826003811061002e57fe5b01819055508080600101915050610017565b50610154806100506000396000f3fe608060405234801561001057600080fd5b50600436106100365760003560e01c80630121b93f1461003b5780633129e7731461007d575b600080fd5b6100676004803603602081101561005157600080fd5b81019080803590602001909291905050506100bf565b6040518082815260200191505060405180910390f35b6100a96004803603602081101561009357600080fd5b8101908080359060200190929190505050610108565b6040518082815260200191505060405180910390f35b60006003821080156100d2575060008210155b156100fe57600082600381106100e457fe5b016000815480929190600101919050555060019050610103565b600090505b919050565b600080826003811061011657fe5b0154905091905056fea265627a7a72315820559b832b4a900d7c006ecb51ba1e918b1ecac1bf84c7f2478c06d389a907a26364736f6c63430005100032",
  "source": "pragma solidity ^0.5.1;\r\n\r\ncontract Vote {\r\n    uint256[3] items;\r\n\r\n    constructor() public {\r\n        // setting up the items with their values\r\n        for (uint256 i = 0; i < 3; i++) items[i] = 0;\r\n    }\r\n\r\n    function vote(uint256 x) public returns (uint256) {\r\n        if (x < 3 && x >= 0) {\r\n            items[x]++;\r\n            return 1;\r\n        }\r\n        return 0;\r\n    }\r\n\r\n    function getItem(uint256 x) public view returns (uint256) {\r\n        return items[x];\r\n    }\r\n}\r\n",
  "sourcePath": "C:/Users/Steven/Crypto/first-dapp/contracts/vote.sol",
  "compiler": {
    "name": "solc",
    "version": "0.5.16+commit.9c3226ce.Emscripten.clang"
  },
  "schemaVersion": "3.3.3",
  "updatedAt": "2021-02-10T19:15:56.197Z",
  "networkType": "ethereum",
  "devdoc": {
    "methods": {}
  },
  "userdoc": {
    "methods": {}
  }
}